:020000040800F2
:10000000FFFF0420714D0008B9170008BD17000854
:10001000C1170008C5170008C91700080000000034
:10002000000000000000000000000000CD170008E4
:10003000D117000800000000D5170008D9170008E4
:10004000C14D0008C14D0008C14D0008C14D000858
:10005000C14D0008C14D0008C14D0008C14D000848
:10006000C14D0008C14D0008C14D0008C14D000838
:10007000C14D0008C14D0008C14D0008C14D000828
:10008000C14D0008C14D0008C14D0008C14D000818
:10009000C14D0008C14D0008C14D0008C14D000808
:1000A000C14D0008C14D0008C14D0008C14D0008F8
:1000B000C14D0008C14D0008C14D0008C14D0008E8
:1000C000C14D0008C14D0008C14D0008C14D0008D8
:1000D000C14D0008C14D0008C14D0008C14D0008C8
:1000E000C14D0008C14D0008C14D0008C14D0008B8
:1000F000C14D0008C14D0008C14D0008C14D0008A8
:10010000C14D0008C14D0008C14D0008C14D000897
:10011000C14D0008C14D0008653B0008C14D0008F5
:10012000C14D0008C14D0008C14D0008C14D000877
:10013000C14D0008C14D0008C14D0008C14D000867
:10014000C14D0008C14D0008C14D0008DD17000871
:10015000C14D0008C14D0008C14D0008C14D000847
:10016000C14D0008C14D0008C14D0008C14D000837
:10017000C14D0008C14D0008C14D0008000000003D
:10018000C14D0008C14D0008C14D0008C14D000817
:10019000C14D0008C14D0008C14D0008C14D000807
:1001A000C14D0008C14D0008C14D0008C14D0008F7
:1001B000C14D0008C14D0008C14D0008C14D0008E7
:0801C000C14D0008C14D00080B
:1001C80010B5054C237833B9044B13B10448AFF389
:1001D80000800123237010BDBC1E01200000000018
:1001E800F4570008084B10B51BB108480849AFF38D
:1001F80000800848036803B910BD074B002BFBD0EB
:10020800BDE81040184700BF00000000F457000880
:10021800C01E0120BC1E012000000000844641EAE7
:10022800000313F003036DD1403A41D351F8043B66
:1002380040F8043B51F8043B40F8043B51F8043BB8
:1002480040F8043B51F8043B40F8043B51F8043BA8
:1002580040F8043B51F8043B40F8043B51F8043B98
:1002680040F8043B51F8043B40F8043B51F8043B88
:1002780040F8043B51F8043B40F8043B51F8043B78
:1002880040F8043B51F8043B40F8043B51F8043B68
:1002980040F8043B51F8043B40F8043B51F8043B58
:1002A80040F8043B51F8043B40F8043B403ABDD2C7
:1002B800303211D351F8043B40F8043B51F8043B69
:1002C80040F8043B51F8043B40F8043B51F8043B28
:1002D80040F8043B103AEDD20C3205D351F8043BF8
:1002E80040F8043B043AF9D2043208D0D2071CBFC4
:1002F80011F8013B00F8013B01D30B8803806046ED
:10030800704700BF082A13D38B078DD010F0030362
:100318008AD0C3F10403D21ADB071CBF11F8013BD2
:1003280000F8013B80D331F8023B20F8023B7BE721
:10033800043AD9D3013A11F8013B00F8013BF9D24C
:100348000B7803704B7843708B78837060467047E6
:1003580010B500F031FC01F02FFB01F01BFA00B1E1
:1003680010BD00F0F9FC04460028F9D10A2001F07C
:10037800AFFA204600F0F0FC0028F1D100F032FD81
:10038800BDE8104000F00ABC00B583B008E001F0F9
:10039800BFFD6A460146002001F02CFB012806D06B
:1003A80001F0B4FD0028F2D103B05DF804FB019B15
:1003B8006846DB79973B0B2B28D8DFE803F0090C5C
:1003C8000F1215181B1E2127240600F09DFBE7E7D6
:1003D80000F0D8F8E4E700F01DF9E1E700F058F97B
:1003E800DEE700F0BFF9DBE700F0E8F9D8E700F056
:1003F80075F9D5E700F01EFAD2E700F051FACFE719
:1004080000F082FACCE700F04DFBC9E7012100F0CB
:10041800A7FBC5E710B5FFF79BFF01F075FD044684
:1004280001E0FFF7B1FF01F06FFD001B6428F8D968
:1004380001F06AFD0446002000F0E2FCF1E700BF8D
:1004480008B500F017FC044B044A9A600448D0F839
:1004580000D0D0F804F008BD00ED00E0000004086A
:10046800000004082DE9F0470B460A784F7800EBA6
:10047800400E0D46424ECAB042EA072706EB8E06EA
:10048800ED78044653F8040F91F802A00DF108091D
:1004980059680DF104089A684FF0140EDB680DF1E5
:1004A800200CADF8047096278DF80750B5798DF8B3
:1004B80006A04FF0FE0A8DF81F706F1C8DF81C50B7
:1004C8007546B77100268DF81BE00DF11B078DF8F6
:1004D8001D600DF11F0E8DF81E604FF6FF768DF82A
:1004E8001AA0A9E80F00B8E80F00D8F80080ACE817
:1004F8000F00CCF8008001E017F8015F85EA0603D9
:10050800360A774583EA0313DBB286EA131646EA0E
:10051800032686EAC306EFD108A833460DADADF829
:10052800186010F8012B190A5340A84283EA0313F4
:10053800DBB281EA131282EA032282EAC3039BB286
:10054800ADF81830EDD183F0C0021B0A204606A989
:1005580082EA0212D2B283EA121383EA022383EAFE
:10056800C2039BB29AB28DF83430130AADF8182042
:100578008DF8353001F022FA4AB0BDE8F08700BFA7
:10058800D81E0120F0B5064689B000247568684673
:100598000094EA7805F108010194092A8DF80840C9
:1005A80028BF0922FFF73AFE9DF80030012B01D041
:1005B80009B0F0BD154A0827154B03A9ED79126853
:1005C8001B6822FA07FC4FEA124E3078160E8DF897
:1005D8000E5023FA07F5ADF80C401C0C8DF81020CE
:1005E8001A0E8DF811C08DF812E08DF813608DF891
:1005F80014308DF815508DF816408DF817208DF8A9
:100608000F70FFF72FFF09B0F0BD00BFF4140120F1
:10061800081F0120F0B5074689B000257C686846A8
:100628000095E27804F108010195092A8DF808502F
:1006380028BF0922FFF7F2FD9DF80030012B01D0F9
:1006480009B0F0BDE2792C46104B8DF80E20ADF8BC
:100658000C501E6802E0725D03F8102CE5B23046BB
:1006680004F0F6FE08AB854204F101042B44F2D3F2
:1006780008AB0022387803A92B448DF80F5003F8F3
:10068800102CFFF7EFFE09B0F0BD00BFF0140120F9
:1006980070B5064688B00024756868460094EA7804
:1006A80005F1080101940A2AADF8084028BF0A227A
:1006B800FFF7B4FD9DF80030012B01D008B070BDE4
:1006C800EB7903A930788DF80E30ADF80C408DF831
:1006D8000F40FFF7C7FE08B070BD00BFF0B5476810
:1006E8008422A7B00021FE7805461D4C05A8964235
:1006F80028BF164604F046FE07F1080105A8324651
:10070800FFF78CFD60689DF817703E18B6F5804FAE
:100718000FD9A189E389A26801319DF81600013338
:100728003A4466600128A181E381A2600AD027B01B
:10073800F0BD103006A93A462044FFF76FFD666801
:100748003E44E6E76B68002226A92878DB7921F881
:10075800982D8DF80230FFF785FE27B0F0BD00BF59
:10076800D824012070B5064688B00024756868460C
:100778000094EA7805F108010194092A8DF80840E7
:1007880028BF0922FFF74AFD9DF800200A4B012ADD
:100798009C81DC811C609C605C6001D008B070BDED
:1007A80008A9EB79307821F8144D8DF80E30FFF751
:1007B80059FE08B070BD00BFD8240120F0B5064628
:1007C80089B00024756868460094EA7805F1080144
:1007D8000194092A8DF8084028BF0922FFF71EFD59
:1007E8009DF80030012B01D009B0F0BD104B062751
:1007F800ED7903A9DA899B684FEA122E30788DF8D3
:100808000E501E0A1D0CADF80C401C0E8DF8102061
:100818008DF811E08DF812308DF813608DF81450B2
:100828008DF815408DF80F70FFF71CFE09B0F0BD6C
:10083800D824012070B5054688B00024696801A84D
:100848000194CA780831ADF80840072A8DF80A40A3
:1008580028BF0722FFF7E2FC019B0E48BDF80820DD
:1008680018440D4901F050F89DF80A200B4B012A55
:100878009C815C6001D008B070BD6B68064608A911
:100888002878DB7921F8146D8DF80E30FFF7EAFD32
:1008980008B070BD00000408E8240120D824012015
:1008A80030B504468BB00023616801A80193CA786B
:1008B800083102930D2A03938DF8103028BF0D22BA
:1008C800FFF7ACFC0198B0F5402F0AD918259DF820
:1008D800081000220B4B01299A815A6005D00BB0F1
:1008E80030BD01F045F80546F1E763680AA92078AC
:1008F800DB7921F8145D8DF81630FFF7B3FD0BB0E6
:1009080030BD00BFD8240120F0B506468BB00024C6
:10091800716868460094CA7808310194112A0294D3
:10092800039428BF11228DF81040FFF777FC009A36
:1009380082B3194D23462C46154414F8011F184656
:1009480000F036F90346AC42F7D19DF80820012A99
:100958001ED1019A0AA970684FEA132E9A4214BF51
:10096800192200221F0C90F807C01D0E042421F83C
:10097800142D30788DF816C08DF818308DF819E0E0
:100988008DF81A708DF81B508DF81740FFF76AFD27
:100998000BB0F0BD1346D8E7FFFF03080B468022D3
:1009A8002DE9F041E6B053F8067B91F804E086267D
:1009B8004D79044619460DF106008DF804E04FF014
:1009C800A008009700278DF80550FFF727FC32464E
:1009D800694624A80DF18F05FFF720FC304B04EB86
:1009E800440132464FF0FE0C8DF88B6003EB810317
:1009F8000DF18B004FF6FF718DF88F8093F806E0AC
:100A08008DF88AC00EF101068DF88CE08DF88D7096
:100A18009E718DF88E7001E010F8012F4A40090A86
:100A2800A84282EA0212D3B281EA131141EA0321F1
:100A380081EAC301F0D124A80B460DF58B75ADF8FA
:100A4800881010F8012B190A5340A84283EA0313AF
:100A5800DBB281EA131282EA032282EAC3039BB261
:100A6800ADF88830EDD183F009021B0A204622A98F
:100A780082EA0212D2B283EA121383EA022383EAD9
:100A8800C2039BB29AB28DF81631130AADF88820CA
:100A98008DF8173100F092FF66B0BDE8F08100BF15
:100AA800D81E012070B50646A4B0002471686846B7
:100AB8000094CA780831ADF80440072A8DF806403A
:100AC80028BF0722FFF7AAFB9DF806200C4BBDF8AC
:100AD8000450012A5C609D6001D024B070BD009B69
:100AE8002A4608490DF10E00029319448DF80D505D
:100AF800FFF794FB307802A9FFF750FF24B070BDD0
:100B0800D82401200000040810B5044688B000234A
:100B1800616868460093CA7808310193092A8DF8FC
:100B2800083028BF0922FFF779FB0C4B1B680133FB
:100B380001D0FFF785FC9DF80030012B01D008B0EB
:100B480010BD6368002208A92078DB7921F8142DEC
:100B58008DF80E30FFF786FC08B010BD00000408C1
:100B680070B5054688B000230E466C686846009349
:100B7800E27804F108010193092A8DF8083028BFAA
:100B88000922FFF74BFB08A9E379287821F8146DAF
:100B98008DF80E30FFF766FC08B070BD034B1B687C
:100BA800013301D0FFF74CBC704700BF00000408B8
:100BB80048400844704700BF70B501F0C7F9284C99
:100BC80000F02EFE0023C4F88430BFF34F8FD4F812
:100BD8008060C6F34E35C6F3C9066A0143F6E07174
:100BE8003346114041EA8372013B1D48C4F8602234
:100BF8005A1CF7D115F1FF35EFD2BFF34F8F436978
:100C080043F480334361BFF34F8FBFF36F8FBFF35C
:100C18004F8FBFF36F8F0024C0F85042436943F4ED
:100C280000334361BFF34F8FBFF36F8F00F0B4F809
:100C380000F060F8C82001F0A9F9224609490A48DD
:100C480003F0D8FC0949084803F0FEFC06480849A7
:100C580000F0CCF90448BDE8704003F0FDBC00BFCB
:100C680000ED00E028160120E86401204415012069
:100C78001816012038B51D4803F0D4FC02F07EFA9E
:100C880001F04EF9BFF34F8FBFF36F8F184B002160
:100C98005A6922F400325A61C3F85012BFF34F8FD9
:100CA800BFF36F8FC3F88410BFF34F8FD3F8805012
:100CB80018465A69C5F34E34C5F3C90522F4803283
:100CC8005A61620143F6E0712B46114041EA837292
:100CD800013BC0F874225A1CF8D114F1FF34F0D249
:100CE800BFF34F8FBFF36F8F38BD00BFE86401209B
:100CF80000ED00E0154B16481A6B42F0040230B5BF
:100D08001A6389B01A6B00244FF4805503A902F0C6
:100D180004020192019A1A6B42F040021A631B6B9B
:100D2800039503F04003049405940293029B0694F0
:100D380001F00AFB082303A90648049405940694C5
:100D4800039301F001FB09B030BD00BF0038024039
:100D5800000802400018024008B568B1012809D10E
:100D680008210B4801F01AFCA0F10100B0FA80F04C
:100D7800400908BD002008BD4FF48051054801F026
:100D88000DFCA0F10100B0FA80F0400908BD00BFD9
:100D980000180240000802400F4B0022196B41F076
:100DA800400130B5196387B01B6B0C4C0C4D03F038
:100DB8004003206829880093009B01F0F5FB00237D
:100DC8002D880122206801A90195029203930493BA
:100DD80001F0BAFA07B030BD00380240F81401201B
:100DE800FC14012000B1704703490122034B086835
:100DF800198801F0D9BB00BFF8140120FC140120A8
:100E080000B17047024A034B1068198801F0D0BB43
:100E1800F8140120FC140120D0F818321BB100206E
:100E2800C3F8140270470220704700BFD0F81C3284
:100E380010B5D0F818425BB194F80002FF2807D02B
:100E48009B68214694F801229847FF2384F80032D2
:100E5800002010BD4323038000487047001501207F
:100E68004323038000487047CC15012043230380A7
:100E780000487047881501200A23038000487047FE
:100E88007C15012038B50446D0F8185200F0F2FB62
:100E9800D4F81832C5F80C024BB1D4F81C3205F559
:100EA8000371D5F80402DB689847002038BD02209A
:100EB80038BD00BF70B50B780C460546D0F81862EF
:100EC80013F0600211D0202A0DD1CA8812B31B0674
:100ED80014D44B78314686F80032E38886F801321C
:100EE800E28803F00FFF002070BD4B780A2BFAD17F
:100EF8000B49012203F0EEFE002070BDD0F81C3231
:100F0800487831469B68984728463146E28803F07E
:100F1800E1FEE8E7D0F81C3248789B689847E2E79A
:100F28000C1F012010B50446812100F05FFB012150
:100F3800204600F05BFB2046822100F057FBD4F8E6
:100F4800183253B1D4F81C325B689847D4F81802A9
:100F580003F064FF0023C4F81832002010BD00BF5E
:100F6800F8B5037C04468121022263BB4FF4007369
:100F780000F032FB2046012102224FF4007300F0FA
:100F88002BFB822103220823204600F025FB4FF487
:100F9800077003F03BFF0546C4F8180218B3D4F8ED
:100FA8001C3200261B689847277CC5F81462204627
:100FB800C5F818620121D5F8042277B1402300F062
:100FC80051FB3046F8BD402300F006FB20460121C6
:100FD8000222402300F000FBD3E74FF4007300F037
:100FE80041FB3846F8BD0120F8BD00BF19B1C0F873
:100FF8001C12002070470220704700BFD0F818323A
:101008000020C3F80812C3F810227047D0F818322D
:101018000020C3F80412704738B5D0F8183283B1ED
:10102800D3F814420CB1012038BD0125D3F80822A9
:101038008121C3F81452B3F8103200F00BFB20469C
:1010480038BD022038BD00BFD0F8182282B1D2F8CE
:101058000422012110B5047C24B1402300F002FBD6
:10106800002010BD4FF4007300F0FCFA204610BDBC
:101078000220704700207047F8B50B68D3B10024F0
:101088000F4B01380F4EA6461F4602E00A68A242DF
:1010980010D91A68013410F8015FB5541A68013282
:1010A8001A601A68B2F5804FF0D1C7F800E00A68F4
:1010B800A242EED80448FFF7C7FF0020F8BD00BFE2
:1010C800101F01200C670120E864012010B5064CB0
:1010D800002206492046FFF791FF20460449FFF702
:1010E80095FF002010BD00BFE864012010A7012073
:1010F80010AB0120212827D022281CD0202801D07D
:1011080000207047F0B4887801244B7800040A78EE
:10111800CF7840EA03230E79144813434D79144AD3
:1011280043EA07638979067145718171036000207C
:101138001470F0BC70478B7801210D480B400D4AA4
:101148000370002011707047084B00201A680A705D
:101158001A68120A4A705A888A70DA78CA701A7934
:101168000A715A794A719B798B7170471016012060
:101178000D1F0120181F01202DE9F84F284BD3F827
:101188001832002B49D0DFF8A0A0DFF8A0B09AF8F9
:101198000030002B3DD0002388468146204D1F4655
:1011A8008BF80030C7EB080609EB07011D48B6F5B8
:1011B800806F28BF4FF480663246FFF72FF8194931
:1011C800B2B21748FFF71AFF00F09EFE04460BE084
:1011D800012819D100F098FE001BB0F57A7F10D8CD
:1011E80095F8FC31032B0FD10D48FFF715FF0028A8
:1011F800EED137440123B8458AF80030D2D8BDE88B
:10120800F88F9BF8003043B900238AF80030BDE816
:10121800F88F9BF80030002BBDD1BDE8F88F00BFD8
:10122800E864012010A701200D1F0120181F0120CC
:10123800034A044B10681B68C01A18BF0120704786
:10124800101F0120141F012010B40C480C4C2268F8
:1012580003680A499A42FAD00B680A4AD05CC0B2BD
:1012680072B60B6801330B600B68B3F5804F01D180
:1012780000230B6062B65DF8044B7047141F012011
:10128800101F01200C6701200368B3F1A04F2DE95E
:10129800F041044690B000F08E80704A934202D02C
:1012A80010B0BDE8F0816E4C022720220025236B88
:1012B8000A264FF003080BA943F00103694823638A
:1012C800236B03F001030493049B236B3B432363C9
:1012D800236B3B400593059B236B43F00403236377
:1012E800236B03F004030693069B236B43F08003F0
:1012F8002363236B03F080030793079B236B43F45B
:1013080080732363236B0B9203F480730C970D9502
:101318000893089BCDF838800F9601F015F808233C
:101328000BA950480B930C970D95CDF838800F9664
:1013380001F00AF843F623430BA94B480B930C978B
:101348000D950F9601F000F801230BA947480B9360
:101358000C970D950F9600F0F7FF10230BA9444842
:101368000B930C970D950F9600F0EEFF4FF400636A
:101378000BA940480B930C970D950F9600F0E4FFCE
:10138800236B2A464D20062143F080432363236BB9
:1013980003F080430993099B236B43F000532363B5
:1013A800236B03F000530A930A9B00F011FE4D20B3
:1013B80000F048FE74E72A4B4FF4C05C4FF0020E71
:1013C80000251A6B03270A260BA942F001022548BB
:1013D8001A631B6BCDF82CC003F00103CDF830E085
:1013E8000D950193019B0E970F9600F0ADFFA36A30
:1013F800012B28D001220A234FF4806512240BA95F
:1014080018480C940D920F930B9500F09DFF144B08
:101418004320062100225C6B44F080045C635C6B13
:1014280004F080040294029C5C6C44F480445C6484
:101438005B6C03F480430393039B00F0C9FD4320D6
:1014480000F000FE2CE74FF4007306480BA90C953A
:101458000D950B9300F078FFCCE700BF0000044027
:101468000038024000000240000402400008024028
:10147800001C0240002002400368B3F1A04F0DD0C9
:101488000B4A934200D070470A4B1A6B22F0005265
:101498001A635A6C22F480425A647047054B5A6B9F
:1014A80022F080025A635A6C22F480425A647047D0
:1014B80000000440003802400146D0F8BC0301F5A2
:1014C800607103F0E1B800BFC1EBC10300EB830317
:1014D800D0F8BC03D3F8E42103F006B9C1EBC1038B
:1014E80000EB8303D0F8BC031A6C03F031B900BFDA
:1014F800D0F8BC0303F0B2B9C16838B50C1C054676
:10150800D0F8BC0318BF012403F072F9D5F8BC0366
:101518002146BDE8384003F08BB900BFD0F8BC03C2
:1015280003F08AB9D0F8BC0303F090B9D0F8BC0333
:1015380003F0A6B9D0F8BC0303F0A0B9D0F8BC03F7
:1015480003F0A0B9D0F8BC0303F09EB9F8B5024681
:10155800144C00250223042140264FF0A047C4F86C
:10156800BC03C2F820422046A361E36061602760A3
:10157800E56225612562E561A5626562666101F043
:101588001FF82046802101F0A1FD29463246204659
:1015980001F076FD20460121802201F071FD2846E8
:1015A800F8BD00BF10AF012008B5D0F8200201F047
:1015B80079F8002008BD00BF08B5D0F8200201F076
:1015C80093F8002008BD00BF08B5D0F8200201F04C
:1015D800A1F8002008BD00BF10B51446D0F82002BD
:1015E8001A46234601F010FC002010BD08B5D0F8BB
:1015F800200201F047FC002008BD00BF08B5D0F864
:10160800200201F0E1FC002008BD00BF08B5D0F8B9
:10161800200201F00BFD002008BD00BF0B06D0F82A
:10162800202206D4C1EBC10102EB810191F8DA0155
:10163800704701F07F03C3EBC30302EB830393F806
:101648003600704708B5D0F8200201F0CBFB002027
:1016580008BD00BF08B5D0F8200201F07BFC0020CF
:1016680008BD00BF08B5D0F8200201F033FC002007
:1016780008BD00BF08B5D0F8200201F061FC08BD24
:10168800122301480B8070474816012004230148A3
:101698000B80704744160120C2B1013AD2B270B42F
:1016A800013200245200264606E00D550B1902347B
:1016B800000194425E7008D0030F092B03F1300536
:1016C80003F13703F1D90B55F0E770BC704700BF41
:1016D8000B4A0C4B10681B6810B518184FF01A0409
:1016E8000C8052F8044C08D007490822FFF7D4FFB1
:1016F800204606490422FFF7CFFF054810BD00BF6A
:10170800187AFF1F107AFF1F5E1601206E1601203F
:101718005C16012010B5044C0A460448214603F023
:10172800B3FA204610BD00BFD0B2012018580008F7
:1017380008B50A4628B10648064903F0A5FA05483F
:1017480008BD0548034903F09FFA024808BD00BFD9
:1017580044580008D0B201202058000810B5044CA5
:101768000A460448214603F08FFA204610BD00BF00
:10177800D0B201206858000810B5044C0A46044845
:10178800214603F081FA204610BD00BFD0B20120E7
:1017980074580008054B586F10F0005004D05A6F69
:1017A800012042F080725A67704700BF003802403B
:1017B800704700BFFEE700BFFEE700BFFEE700BFBF
:1017C800FEE700BF704700BF704700BF704700BF0B
:1017D80000F0CEBB014800F0B5BF00BF10AF01203C
:1017E8000B490346086878B10A4A0344126812682C
:1017F800A2F50052934201D80B607047064B0C22A9
:101808004FF0FF301A607047044A10460A60EBE751
:101818001C1F012008ED00E02CB4012030B4012089
:10182800F0B593B0022401274FF480364FF48005B9
:1018380019214FF4D872092306A8069707960C9425
:1018480010940D950E910F92119301F0C7FC00B101
:10185800FEE701F057FC034600B1FEE70F264FF400
:10186800A0554FF4805201A80721029403930196D2
:101878000495059201F0D4FE00B1FEE713B0F0BD67
:101888000F4A104BD2F888000F4940F4700070B42A
:10189800C2F88800002418684FF000650B4E40F02D
:1018A800010018609C601868014019605E60196842
:1018B80021F480211960DC60956070BC704700BF1E
:1018C80000ED00E000380240FFFFF6FE1030002473
:1018D80010B584B0044600F017FB019006E0039BA6
:1018E8000293029A019B23449A420BD800F00CFB06
:1018F800029000F009FB0390039A029B9A42EED3F0
:10190800029BEDE704B010BD2DE9F8439708814626
:101918008846BB0700D0013700F0D2FB17B3C8EBED
:1019280009094446002601E0BE421BD0A37809EB12
:101938000401657802201B0418F826E0E2780136D5
:1019480043EA05250023043445EA0E0545EA026208
:1019580000F0F6FB0028E7D0142400F0C3FB204673
:10196800BDE8F883002400F0BDFB2046BDE8F883FD
:10197800C0F31103800C10B586B003B10130032801
:101988004FF002024FF005034FF0000128BF03207B
:10199800059203930291049000F092FB01A902A81A
:1019A80000F070FC00280CBF0024162400F09AFBFD
:1019B800204606B010BD00BF704700BFF0B5CE7816
:1019C800ADF2044D0D460746B41D02316846224665
:1019D800FEF724FC2B880DEB0402190A0DF80430DD
:1019E800517027B9684606F1080100F093FA0DF224
:1019F800044DF0BD2DE9F04F914683B006460C46E4
:101A080089F8000090B9C64DEB7828700A2B00F2CF
:101A1800E881DFE813F06900690073009400A10011
:101A2800A900B100CD00E90008010801BC4D07017B
:101A3800DFF8F4A200213B18EA7B29730AEB0313B1
:101A48000A2A00F2F381DFE812F01F011F012D01BD
:101A58004E015B01630173018F01AC010B000B00A8
:101A68000A2ADFF8C08205D0B8F81021B4EB122F8B
:101A780000F03D8202222A73009295F810E04FF49C
:101A88008872DFF8A0C24FF0010BC64418460CEB71
:101A9800020185F80FB08EF81941CDF804C0FEF7A1
:101AA800BDFB009A0346DFF878B2012A40F0C281F4
:101AB800DDF804C0BBF814209CF814118BF8111041
:101AC8000AB9ABF816203E44002098F813110132E9
:101AD800A8730AEB061A0120AA828AF80310C9F82B
:101AE800043003B0BDE8F08FFE2900F0EB818D4A89
:101AF80000218D4BD278A970DA701CE0DFF82482BF
:101B080000210422B8F8003088F803405C401B0A22
:101B1800297184EA0414EA70E2B283EA121343EAF0
:101B2800022383EAC203A8F8003098F803200021B2
:101B38007D4BA970DA70002003B0BDE8F08FDFF8A4
:101B4800E4810522B8F8003088F805105C40EA7096
:101B58001B0A84EA0414DFE7DFF8C8810322B8F817
:101B6800003088F80410F1E7DFF8B8810622B8F8E9
:101B7800003088F80610E9E7DFF8A881B8F80030E7
:101B880098F8031084EA03021B0A88F8074082EADF
:101B98000212D2B283EA121343EA022383EAC2038F
:101BA800A8F80030002940F079810823EB70BCE7E1
:101BB800DFF870812B79591C43441C72C9B2B8F8FC
:101BC800003098F803005C401B0A8842297184EAB7
:101BD8000414E2B283EA121343EA022383EAC2033B
:101BE800A8F80030A1D1E0E7DFF838814F4998F82C
:101BF8000720B8F80030895C1A0A4B4083EA0313BF
:101C0800DBB282EA131242EA032282EAC303DAB29F
:101C1800A8F80030944200F052810A23EB702B7927
:101C280043441C7281E70A2BDFF8F88005D0B8F826
:101C38000030B1EB132F00F0568102262E702B795D
:101C48000127DFF8E0A04FF488724344EF7036486C
:101C580051465C72FEF7E2FA012E314F40F0C48023
:101C68009AF804203B897A7103B97B812E4A0133A3
:101C780098F80340002101202B81D470C9F8042072
:101C8800A97003B0BDE8F08FFE2C00F00A813E4435
:101C9800244B00220AEB061A93F81331AA738AF828
:101CA800033048E7DFF87C8000210422B8F81031BF
:101CB80088F813415C401B0A297484EA0414EA7307
:101CC800E2B283EA121343EA022383EAC203A8F8C2
:101CD80010313E4498F8133100220AEB061AAA7311
:101CE8008AF8033027E7DFF83C800522B8F810317E
:101CF80088F815415C40EA731B0A84EA0414DFE79C
:101D0800DFF820800322B8F8103188F81441F1E791
:101D1800DFF810800622B8F8103188F81641E9E794
:101D280060230120201F0120902301209C580008D7
:101D3800DFF8CC81B8F8103198F8131184EA03025F
:101D48001B0A88F8174182EA0212D2B283EA1213F8
:101D580043EA022383EAC203A8F81031002940F0BD
:101D68009A800823EB73B4E7DFF894812B7C591C25
:101D7800434483F81841C9B2B8F8103198F81301F0
:101D88005C401B0A8842297484EA0414E2B283EA9C
:101D9800121343EA022383EAC203A8F8103198D148
:101DA800DFE7DFF85C81544998F81721B8F810315B
:101DB800895C1A0A4B4083EA0313DBB282EA1312E6
:101DC80042EA032282EAC303DAB2A8F81031944245
:101DD80000F086800A23EB732B7C434483F8184178
:101DE80077E70026DFF8188198F803300027DFF836
:101DF80014E1022EAF708EF80330404A2B79404D23
:101E08007FF499AE2B440121FE2C1770587A1B7A67
:101E1800917043EA0023AEF8003001D0D1708AE611
:101E28004FF6FF73D670EF702B8084E60023DFF83F
:101E3800D08000934FF48872009898F813E100213D
:101E480002FB06AA02282B7CA973DFF8B8C08AF81F
:101E580003E02B4D294A7FF46EAE2B443E44FE2C02
:101E68004FF0010793F819E14FEA061693F8183175
:101E7800117343EA0E2397732CF8063001D0D773F9
:101E880059E64FF6FF739DF8000085F81311D073DB
:101E9800A5F810314FE60723EB731AE70723EB7019
:101EA80043E6DFF85C80022100224FF6FF73E973F6
:101EB80088F8124188F81321A8F8103109E7092396
:101EC800EB70ACE6DFF83880022100224FF6FF7392
:101ED800E97088F8024088F80320A8F8003024E662
:101EE8000923EB7378E701231E462B70A7E601222E
:101EF80000922A73C1E500BF9C58000860230120A6
:101F0800201F01209023012000F03AB8FFF790B974
:101F1800FFF79AB910B50C46FFF72EF9204610BD09
:101F280010B5094B4FF0FF3200241A621C625A6246
:101F38005C621A611C615A615C619A619C6100F083
:101F48003DFB204610BD00BF00380240074A032071
:101F580008B5136843F40073136000F025F80020F7
:101F680001F0B6FD00F028FB002008BD003C02404F
:101F7800024A136801331360704700BFD0B30120D1
:101F8800014B1868704700BFD0B3012010B582B06C
:101F98000190FFF7F5FF0446FFF7F2FF019B001BD6
:101FA8009842F9D302B010BD07494FF6FF02074B1C
:101FB80000F0070010B4CC6822405DF8044B1343CE
:101FC80043EA0023CB60704700ED00E00000FA050B
:101FD800194BDB68C3F3022330B4C3F107051C1D9A
:101FE800042D28BF0425062C19D9033B01249C4045
:101FF800013C22400124002804FA05F404F1FF34CE
:1020080001EA040101FA03F142EA01020ADB1201C2
:102018000A4BD2B2034483F8002330BC7047002235
:102028001346E7E700F00F001201054BD2B2034454
:102038001A7630BC704700BF00ED00E000E100E018
:10204800FCEC00E000F01F010123034A40098B402B
:1020580042F82030704700BF00E100E0164BDB6813
:10206800DB0604D5154A936943F010039361124BBC
:10207800DB68980604D5114A936943F00803936115
:102088000D4BDB68590604D50C4A936943F00403E9
:102098009361094BDB681A0604D5084A936943F033
:1020A80002039361044BDB689B0704D5034A9369D9
:1020B80043F0200393617047003C0240D4B30120F1
:1020C800054B1A69002A01DB0120704703490020EB
:1020D800034A59605A607047003C02402301674533
:1020E800AB89EFCD034A0020136943F00043136125
:1020F800704700BF003C02400F4B002270B50446F9
:102108009A610E4DFFF73CFF064601E0621C0BD1B9
:10211800EB680A4ADB03F9D4D36813F0F20002D063
:10212800FFF79CFF012070BD24B1FFF729FF801B3A
:102138008442EDD2032070BDD4B30120003C02409C
:102148002DE9F041354C1F46237D012B02D1022099
:10215800BDE8F081012305464CF25030884616460A
:102168002375FFF7C9FF00BB032D15D8DFE805F07D
:10217800450233212A4BB6B2196921F4407119611D
:10218800196941F480711961196941F001011961F6
:10219800A8F80060BFF34F8F4CF25030FFF7ACFF48
:1021A8001F4A136923F00103136100232375BDE857
:1021B800F0811B4B1A6922F440721A611A6942F4C1
:1021C80040721A611A6942F001021A61C8E900678F
:1021D800BFF34F8FE0E7124B1A6922F440721A617D
:1021E8001A6942F400721A611A6942F001021A610E
:1021F800C8F80060BFF34F8FCEE7094BF6B21969F4
:1022080021F4407119611A691A61196941F00101D3
:10221800196188F80060BFF34F8FBDE7D4B3012080
:10222800003C024010B439B1012925D002290CBF65
:102238004FF400714FF44071114B78221C6924F45B
:1022480040741C611C6921431961196921F0F80166
:10225800196192FAA2F21969B2FA82F2904041F039
:102268000202104318611A6942F480321A61BFF3FE
:102278004F8F5DF8044B70474FF48071DCE700BF67
:10228800003C02402DE9F8432D4F3B7D012B02D144
:102298000220BDE8F883012304464CF250308846FA
:1022A8003B75FFF729FF064638BB4FF0FF33C8F8E8
:1022B80000302368012B25D06568A3682B449D4214
:1022C8001BD2DFF8809005E062680135A3681344EB
:1022D800AB4212D92846217BFFF7A4FF4CF25030BD
:1022E800FFF70AFFD9F8103023F07A03C9F8103045
:1022F8000028E9D00646C8F80050002330463B7550
:10230800BDE8F8830F4DE3682969DAB221F4407318
:102318002B612B6943F004032B612B6943F4803351
:1023280043EA02232B61BFF34F8F4CF25030FFF783
:10233800E3FE2B69064623F004032B61DDE700BFAB
:10234800D4B30120003C02402DE9F04F002383B0B4
:10235800DFF83082D1F800C0DFF82C92DFF82CE2E9
:1023680003E00133102B00F0AE8001229A4002EA0C
:102378000C049442F5D14D6825F01007022F40F067
:10238800A580DF0803F0070A4FF00F0B0A6900EB7E
:1023980087074FEA8A0A3E6A0BFA0AFB02FA0AF230
:1023A8004FEA430A26EA0B064FF0030B32430BFAB7
:1023B8000AFB05F003063A626FEA0B02076806FAA1
:1023C8000AF617403E4306608668C5F3001702EA1E
:1023D800060BCE689F4006FA0AF64BEA06068660A8
:1023E800466826EA040637434760C7688E683A405D
:1023F80006FA0AF61643EA00C660B2D5D8F8446071
:1024080023F0030B584F03F0030246F4804A0F26CB
:102418005F449200C8F844A04845D8F844A006FA9A
:1024280002F60AF4804ACDF804A0DDF804A0D7F833
:1024380008A02AEA060B68D04C4EB04267D04C4E32
:10244800B04269D04B4EB0426BD04B4EB04272D0C6
:102458004A4EB04274D04A4EB04276D0DFF830A12E
:10246800504577D0DFF82CA1504578D0DFF828A167
:1024780050455BD04FF00A0A0AFA02F242EA0B0210
:10248800E643BA60EF03DEF800203CD43240AF03E5
:10249800CEF80020DEF8042033D43240EF02CEF824
:1024A8000420DEF808202AD43240AD02CEF80820F5
:1024B800DEF80C2021D406EA02040133CEF80C40E1
:1024C800102B7FF452AF03B0BDE8F08F4FEA430AF8
:1024D8000322D0F800B0013F05EA020602FA0AF228
:1024E800012F6FEA020206FA0AF602EA0B0B4BEA20
:1024F800060606603FF679AF66E71443DDE7224338
:10250800D3E72243CAE72243C1E70022B6E74FF0E8
:10251800010A0AFA02F2B1E74FF0020A0AFA02F2D5
:10252800ACE74FF0030A0AFA02F2A7E74FF0090AEC
:102538000AFA02F2A2E74FF0040A0AFA02F29DE749
:102548004FF0050A0AFA02F298E74FF0060A0AFA6B
:1025580002F293E74FF0070A0AFA02F28EE74FF009
:10256800080A0AFA02F289E700380140000402402A
:1025780000080240000C0240001002400014024013
:10258800001802400038024000000240003C0140B0
:10259800001C024000200240002402400369194246
:1025A80014BF01200020704702B9090481617047F7
:1025B8004369594041617047704700BF704700BF89
:1025C800002868D00323F0B507468BB0054680F88D
:1025D8007D33061DFEF758FE38686C4601F028FB6F
:1025E80055F810CBAE46BEE80F000FC4BEE80F008A
:1025F8000FC4DEF800306046236096E80E0001F054
:10260800D1FA0021386801F01BFB00213B463A460D
:102618000C46012082F834101C32D18301315076E7
:102628000F29D47614625462D462F3D100223C6834
:10263800114683F8D82102F140005A87013204EB91
:10264800800083F8D9110F2A83F8DB11C3F8E01151
:1026580003F11C03C3F8C811C3F8D0114160E8D1D5
:102668000FCDEE46AEE80F000FCDAEE80F002B6899
:102678002046CEF8003096E80E0001F0FBFA012261
:102688007B6A87F87D23934207D0386801F034FFCE
:1026980000200BB0F0BD01207047384600F01AFD4D
:1026A800F3E700BFF0B190F87C330322012B10B59B
:1026B800044680F87D230ED00123006884F87C331B
:1026C80001F0B6FA206801F0C7FE206801F014FF97
:1026D800002384F87C332046FEF7CEFE002084F8E1
:1026E8007D0310BD0120704790F87C33012B01D188
:1026F8000220704710B501230446006884F87C3333
:1027080001F0EEFE206801F08BFA002084F87C03CB
:1027180010BD00BF90F87C33012B01D10220704717
:1027280010B501230446006884F87C3301F080FA70
:10273800206801F091FE206801F0DEFE002084F898
:102748007C0310BD2DE9F04F076887B00446384672
:1027580001F00EFF10B107B0BDE8F08F206801F05E
:10276800D7FE0028F7D0206801F0D2FE10F0020F43
:10277800206801D00223436101F0CAFE020300F180
:10278800F3800026206801F0C3FE10F4802F206833
:1027980040F08F8001F0BCFE0028C0F2B0812068B4
:1027A80001F0B6FE050563D4206801F0B1FE010111
:1027B80012D523684FF0006194F8B0235961002ABC
:1027C80060D15B6D01212046C3F3830384F8B01305
:1027D800C4F8B43300F094FC206801F099FEC204F8
:1027E80000F12681206801F093FE10F4005F206854
:1027F80040F0008101F08CFE10F0100F206811D01D
:10280800836923F0100383613D6AC5F3434305F0F0
:102818000F08022B00F00682062B37D0836943F09D
:102828001003836101F074FE030700F158812068EA
:1028380001F06EFEC70200F14981206801F068FED0
:10284800850200F15381206801F062FE400000F12A
:102858003581206801F05CFE41077FF57CAF236875
:102868005D686A0700F1B6815A6815435D6072E7D2
:10287800D7F80838D80700F1C48120684FF40063FE
:10288800436192E72046FEF749FEA5E7C8EBC80872
:102898000822384604F5607101F088FDC5F30A1571
:1028A80004EB8803D3F8F0211544C3F8F0512068ED
:1028B800B4E701F039FE8046002800F00A820026BD
:1028C8002068254607F5106AB346039709E05FEAD2
:1028D80058080BF1010B05F11C050AF1200A00F05C
:1028E800218118F0010FF2D05FFA8BF9494601F007
:1028F8002DFE0646F0071ED5039B01222069D3F85A
:10290800341802FA0BF221EA0202C3F83428012330
:102918009842CAF8083000F0A28120464946FEF7DE
:10292800DDFDBBF1000F06D12369012B03D1A36C98
:10293800002B00F0DC81310702D50823CAF80830E3
:10294800F20602D51023CAF80830730602D54023D0
:10295800CAF80830B70702D50223CAF80830360685
:1029680000F1EA802068B2E7206801F0D5FD05464D
:1029780000283FF406AF07F53068A346002608E0B4
:102988006D0806F1010608F120080BF11C0B3FF455
:10299800F9AEEB07F4D55FFA86FA2068514601F0E4
:1029A800CBFD10F0010F814613D001222369934219
:1029B800C8F8082000F0588151462046FEF784FDEB
:1029C8003EB92369012B04D1D4F8EC31002B00F077
:1029D800958119F0080F40F0A88019F0100F02D067
:1029E8001023C8F8083019F0200FC9D02023C8F8E0
:1029F8000830C5E701F0C0FD2368DA68184622F4FC
:102A08007052DA6001F00AFA002840F03C8122682E
:102A18004FF40071E060D368616143F41053D360F0
:102A28002046FEF769FD20684FF400534361E1E654
:102A380007F50068D8F804302068002123F0010366
:102A4800C8F8043001F0D8F9656865B107F5306356
:102A58000022FF210132A3F500702033AA428160D1
:102A680043F8181CF6D14FF0FF33E26AC8F8183063
:102A7800D8F81C3043F00113C8F81C30002A00F0C5
:102A8800C480D8F8843043F00B03C8F88430D8F8F1
:102A9800443043F00B03C8F84430D7F8003804F545
:102AA8006072206823F4FE63217CC7F8003801F0C7
:102AB8007FFD20684FF48053436194E62046FEF77B
:102AC8003DFD20684FF080434361C3E62046F1B2E4
:102AD800FEF730FD20684FF480134361AEE62046D0
:102AE800FEF706FD206808234361A1E62046F1B2FF
:102AF800FEF71CFD20684FF400134361A4E694F828
:102B0800B013D7F80428012922F00102C7F80428D5
:102B180000F0CA802046FEF705FD20684FF000430C
:102B280043613DE65E46039F34E62046FEF7C4FC5B
:102B38000823C8F8083050E7A86CD5F84CC0EA6BF1
:102B4800CCEB0003266893421F4606F5106128BFA8
:102B5800174601EB4B1117F1030E0491896900F137
:102B6800AA8089B2B1EBAE0F40F2CF80002800F006
:102B7800CC80604540F2C980296C1746CDF8148096
:102B8800A8462546049C0BE0B2EBA00F27D9D8F83D
:102B980048209A42A2EB030321D902B3D8F83C702B
:102BA8009F422A7C304628BF1F4600924A46BBB245
:102BB80001F0E8FBD8F84010D8F84C30F81C39443C
:102BC8003B44C8F84010C8F84C30A26992B2DBD533
:102BD800B81DD9E72046FEF7B5FC236844E62C4625
:102BE8004546DDF814802068002F3FF770AE0123BA
:102BF800D6F8342803FA0BF322EA0303C6F834386C
:102C080065E62046FEF78AFC37E6D8F8143043F02C
:102C18002B03C8F81430D8F8103043F00B03C8F869
:102C280010303AE747F6F0732B40002B3FF4F6AD2F
:102C3800C8EBC80838461F0904EB88053A46D5F89A
:102C4800E41101F0B3FBD5F8E421D5F8F0313A44AA
:102C58003B44C5F8E421C5F8F0312068DEE52A6C6C
:102C6800EB6B13442B6458E6D8F81030DBF8E0110E
:102C7800DBF8E421C3F312030A44CB1ACBF8E421AE
:102C8800CBF8F03198E603224023E260636100F05C
:102C980071FD424B424A034493420FD82268D368DD
:102CA80043F47053D360BBE60021204684F8B01388
:102CB80000F026FA31E707F1060E52E7394B3A4A97
:102CC8000344934208D82268D36843F46053D3601E
:102CD800A6E6064620685DE5344B354A0344934230
:102CE80015D82268D36843F45053D36098E6206817
:102CF800012104F5607201F05BFC1CE620680121EB
:102D080004F5607201F054FC63E630466CE7294B29
:102D1800294A0344934205D82268D36843F44053B0
:102D2800D3607DE6254B264A0344934205D82268A2
:102D3800D36843F43053D36072E6224B224A0344EB
:102D4800934205D82268D36843F42053D36067E6DA
:102D58001E4B1F4A0344934205D82268D36843F4A4
:102D68001053D3605CE61B4B1B4A0344934205D8BF
:102D78002268D36843F40053D36051E6174B184ACE
:102D8800034493422268D36803D843F4E053D360E2
:102D980046E643F4C053D36042E600BF405327FFE2
:102DA800FF340C00401E1BFF3F420F0000DC0BFFEE
:102DB8007F4F1200808CF9FE1FD6130060B6E5FE27
:102DC8005FE3160000D3CEFE3F771B00C05BB3FE67
:102DD800BF91210000CA91FE1F753800E05459FECA
:102DE800DF9C410090F87C33012B01D10220704711
:102DF80010B501230446006884F87C3301F05EFBBB
:102E0800002084F87C0310BDF8B50546080626D4D2
:102E1800C1EBC1004FF0000E80002E1800F5EC70D9
:102E28002C1886F8D81186F8D9E1C6F8E02186F87A
:102E3800DB31022B10D095F87C33012B01D1022015
:102E4800F8BD01232146286885F87C3301F002F893
:102E5800002085F87C03F8BD00232371EBE701F01F
:102E68007F000127C0EBC004A4002E19344686F861
:102E7800340086F835703434F26386F8373070875A
:102E8800D7E700BF10B50446C8B2030619D4C1EB92
:102E9800C1030A4604EB830303F5EC71C0090A7009
:102EA800487094F87C33012B01D1022010BD012316
:102EB800206884F87C3301F013F8002084F87C0340
:102EC80010BD01F07F02C2EBC20304EB830303F1E0
:102ED8003401E3E7F8B501F07F060021F500AC1BEB
:102EE80000EB8404C4F8E421C4F8EC31C4F8F01110
:102EF80084F8D91184F8D8610369012B1DD090F8A2
:102F08007C23012A17D0AD1B0122044600EB85055E
:102F180080F87C23DAB2006805F5EC712EB101F077
:102F280021F8002084F87C03F8BD01F069F900203D
:102F380084F87C03F8BD0220F8BDC4F8E821DEE778
:102F480001F07F01C1EBC10100EB8100B0F8F00195
:102F5800704700BF2DE9F04101F07F064FF0010EE8
:102F68004FF00008F500AC1B00EB84042264A36456
:102F7800C4F84C8084F8346084F835E003697345FC
:102F880020D090F87C23012A19D0AD1B01220446D9
:102F980000EB850580F87C23DAB2006805F134017E
:102FA80036B100F0DFFF002084F87C03BDE8F08133
:102FB80001F026F9002084F87C03BDE8F0810220A6
:102FC800BDE8F0816264DCE7CAB238B5130605468D
:102FD8001BD4C1EBC1030C4600EB830101F5EC7176
:102FE800D20901230C704A708B7095F87C239A42A1
:102FF80001D1022038BD85F87C33286801F0ECF94E
:1030080064B1002085F87C0338BD01F07F04C4EB6F
:10301800C40300EB830303F13401E1E7286805F5F5
:103028006072297C01F0C4FAEBE700BF38B50546A9
:10303800C8B203061BD4C1EBC1030A4605EB8303E0
:1030480003F5EC71C00900240A7048708C7095F87B
:103058007C33012B01D1022038BD0123286885F873
:103068007C3301F0D9F985F87C43204638BD01F05E
:103078007F02C2EBC20305EB830303F13401E1E7EE
:1030880070B40668736AD1B1B46A013903EB1444A9
:103098000CD0002318464033013006EB8303C0B23E
:1030A8005D688842034604EB1544F4DB403144EA8A
:1030B8000244002006EB81014C6070BC704743EA73
:1030C80002440020B46270BC704700BF036800204F
:1030D8005962704703680121084A30B4C0F8B81330
:1030E80004469969002541F0006184F8B0532846E8
:1030F8009961596D0A4330BC5A6570470300001046
:10310800704700BF1B4A1C4B116C41F0805130B511
:10311800116483B0126C1C4602F080520192019A2D
:103128001A6842F480321A60FEF72AFF054605E065
:10313800FEF726FF401BB0F57A7F18D863680E4A61
:10314800D903F5D51368144643F400331360FEF72A
:1031580017FF054605E0FEF713FF401BB0F57A7F21
:1031680005D863689B03F6D5002003B030BD032063
:1031780003B030BD0038024000700040114B0022FF
:1031880011481249F0B41D68114C45F08105114EE3
:103198001D609A601F68104D3C401C605A605C6856
:1031A80020435860C3F88420D3F884000143C3F84F
:1031B8008410196821F480211960DA603560F0BC48
:1031C800704700BF00380240103000240030002053
:1031D800FFFFF6FA781601200024F4000368F0B522
:1031E800DD0783B0044630D5AB498A6802F00C028B
:1031F800042A00F0FD808A6802F00C02082A00F018
:10320800F3806368B3F5803F00F03881002B00F04D
:103218000A81B3F5A02FA04B1A6800F09C8122F414
:1032280080321A601A6822F480221A60FEF7A8FE1B
:10323800994D064605E0FEF7A3FE801B642800F2C0
:10324800AF802B689A03F6D523689F0730D5924A3A
:10325800916811F00C0F00F0AA80916801F00C0140
:10326800082900F0A080E368002B00F0F3808A4B67
:103278001A681D4642F001021A60FEF781FE0646F2
:1032880005E0FEF77DFE801B022800F289802B688E
:10329800814A9807F5D51168F82090FAA0F02369BB
:1032A800B0FA80F021F0F80183400B4313602368E3
:1032B8001A0720D4590736D4A269CAB1764B99683F
:1032C80001F00C01082979D0022A1A6800F0DC8084
:1032D80022F080721C461A60FEF752FE054604E092
:1032E800FEF74EFE401B02285AD823689B01F7D4EC
:1032F800002003B0F0BD6369002B62D0664B5A6FA3
:103308001D4642F001025A67FEF73AFE064604E0FF
:10331800FEF736FE801B022842D86B6F9F07F7D551
:1033280023685907C8D55C4A5C4B116C1D4641F0AF
:1033380080511164126C02F080520192019A1A684D
:1033480042F480721A60FEF71BFE064604E0FEF7A0
:1033580017FE801B642823D82B68DA05F7D5A368E5
:10336800012B00F00081002B00F0DC80052B4A4B7C
:103378001A6F00F0FE8022F001021A671A6F22F01D
:1033880004021A67FEF7FCFD434D074641F28836F2
:103398002B6F9B0790D4FEF7F3FDC01BB042F7D903
:1033A800032003B0F0BD526856023FF55CAF3A4ABD
:1033B8001268950726D5E268012A23D0012003B0B8
:1033C800F0BD354B5A6F1D4622F001025A67FEF7D1
:1033D800D7FD064604E0FEF7D3FD801B0228DFD8A0
:1033E8006B6F9807F7D49BE74A6850027FF509AFDF
:1033F800294A126891037FF528AF6268002A7FF492
:1034080024AFDBE7244DF820296890FAA0F0226960
:10341800B0FA80F021F0F80182400A432A601A07C6
:103428007FF548AF67E71C4B1A681D4622F48032C7
:103438001A601A6822F480221A60FEF7A1FD064677
:1034480004E0FEF79DFD801B6428A9D82B689B0328
:10345800F7D4F9E6104B1A681D4622F001021A60EB
:10346800FEF78EFD064604E0FEF78AFD801B022863
:1034780096D82B689907F7D4236819E7064A136882
:1034880043F480331360D1E622F080721D461A603F
:10349800FEF776FD064609E000380240007000405D
:1034A800FEF76EFD801B02283FF67AAF2B68354A7F
:1034B8009901F5D447F6C07090FAA0F04FF4403760
:1034C800B0FA80F097FAA7F74FF07066B7FA87F767
:1034D80096FAA6F6A36AB6FA86F6616A1546D4F88D
:1034E80020C05B08D4F81CE001FA00F0013BE16A57
:1034F8004CEA0E04BB40B140204303430B435360E6
:10350800136843F080731360FEF73AFD044605E044
:10351800FEF736FD001B02283FF642AF2B689A01E2
:10352800F6D5E5E6174B41F288371A6F1D4622F0AB
:1035380001021A671A6F22F004021A67FEF720FDCB
:1035480006462B6F98077FF5B7AEFEF719FD801B6F
:10355800B842F6D924E742F480221A601A6842F485
:1035680080321A6062E6074A136F43F0010313675B
:1035780008E742F004021A671A6F42F001021A675C
:1035880000E700BF0038024022498B6803F00C03B3
:10359800042B2CD0082B28D14A6810B44C6802F0B0
:1035A8003F03620225D44C6847F6C07191FAA1F135
:1035B80047F6C070184AB1FA81F12040B2FBF3F225
:1035C800C84002FB00F313494FF44032486892FAAE
:1035D800A2F2B2FA82F200F440305DF8044BD04017
:1035E80001304000B3FBF0F070470B4870470B48C0
:1035F80070474A6847F6C07494FAA4F447F6C07056
:103608000649B4FA84F41040B1FBF3F2E04002FB3F
:1036180000F3D8E7003802400024F40040787D0128
:10362800504A136803F00F038B422DE9F0410CD286
:10363800136823F00F030B431360136803F00F03A1
:103648008B4202D00120BDE8F08103689A0706D5B5
:10365800454D8268AC6824F0F0042243AA60DF0775
:1036680006460C4622D543683F4A012B126876D09D
:10367800022B6ED09107E5D53B4D41F28838AA68F8
:1036880022F003021343AB60FEF77AFC7368074627
:10369800012B4DD0022B05D155E0FEF771FCC01B64
:1036A800404559D8AB6813F00C0FF6D12D4A136872
:1036B80003F00F039C4209D2136823F00F0323433E
:1036C8001360136803F00F03A342BBD133685A0792
:1036D80006D52548F268816821F4E0510A438260E2
:1036E8001B0707D5204A3169936823F4604343EAEE
:1036F800C1039360FFF748FF1B4B0146F0229B680C
:1037080092FAA2F2B2FA82F203F0F003174C002008
:10371800D340174AE35C21FA03F3136000F0D8F9A9
:103728000020BDE8F081FEF72BFCC01B404513D8F4
:10373800AB6803F00C03042BF5D1B7E7FEF720FCC8
:10374800C01B404508D8AB6803F00C03082BF5D123
:10375800ACE7900190D475E70320BDE8F0819503AC
:103768008AD46FE7003C02400038024084580008C1
:1037780078160120014B1868704700BF78160120A1
:10378800084B4FF4E0529B6892FAA2F2B2FA82F226
:1037980003F4E0530449D340044ACB5C1068D84092
:1037A800704700BF0038024094580008781601207E
:1037B8000E4B0F2202609A6802F0030242609A6878
:1037C80002F0F00282609A6802F4E052C2609B68DC
:1037D80003F4604310B4DB08054C036123685DF80B
:1037E800044B03F00F030B60704700BF0038024022
:1037F800003C0240704700BF03680020DA6842F0CE
:103808000102DA601A6842F001021A60704700BFCC
:10381800704700BF704700BF704700BF704700BFC8
:1038280003681A69910710B5044602D5DA68920749
:1038380065D41A69520702D5DA6850074CD41A6958
:10384800110702D5DA68120734D41A69D00602D5EE
:10385800DA68D1061ED41A69D20702D5DA68D00709
:103868006BD41A69110602D5DA6812066DD41A6982
:10387800D00502D5DA6811066FD41A69520602D546
:10388800DA68500651D41A69910602D5DA689206A8
:1038980043D410BD6FF01001082220461961DB697E
:1038A800227613F4407F6CD0FFF7B4FF0022236820
:1038B8002276D0E76FF00801042220461961DB69FF
:1038C80022769B075AD1FFF7A3FF2046FFF7A4FFF4
:1038D800002223682276B8E76FF00401022220460E
:1038E80019619B69227613F4407F44D1FFF790FF5A
:1038F8002046FFF791FF0022236822769FE76FF0AA
:103908000201012219619B69027699072DD0FFF700
:1039180081FF0022236822768BE76FF02002204681
:103928001A61BDE8104000F01FB96FF04002204650
:103938001A61FFF773FF2368A5E76FF001022046BD
:103948001A6100F009F923688BE76FF080022046BE
:103958001A6100F00BF9236889E76FF080022046AE
:103968001A6100F003F9236887E7FFF751FF204643
:10397800FFF752FFCDE7FFF74DFFBCE7FFF74AFF20
:10398800A6E7FFF745FF2046FFF746FF8EE700BF93
:103998003B4AB0F1804F036870B4A0EB0206B6FA58
:1039A80086F64FEA56164CD0002E4AD1A2F5784238
:1039B80090420DD0A2F58062904209D002F50062D3
:1039C800304C904218BFA0420CBF0122002211D1F6
:1039D8002C4A23F070032C4C821A4D68A042B2FA8C
:1039E80082F243EA05034FEA521233D0A4F5806409
:1039F800A0422FD0254CA04214BF144642F0010427
:103A080044BB234A234D904218BFA8420CBF012251
:103A1800002231D005F500651F4CA04218BFA8420E
:103A280018D01E4A904229D002F58062904225D0D3
:103A38008C680A680360C4628262012370BC4361B7
:103A480070474A6823F070030E4C1343021BB2FA06
:103A580082F25209CC6823F440738D681C430B68CA
:103A68000460C56283620AB9002EE6D00B6903635D
:103A7800012370BC436170472246EBE70022E9E767
:103A8800000001400004014000080040000C004014
:103A9800004401400040014000180040001C004064
:103AA800A0B190F8393010B5044663B1214602231D
:103AB80051F8040B84F83930FFF76AFF012300201E
:103AC80084F8393010BDFFF795FEEFE70120704705
:103AD80030B5014689B000223620FEF779FA362043
:103AE800FEF7B0FA184B03A801A91A6C42F01002AD
:103AF8001A641B6C03F010030293029BFFF758FE35
:103B0800069BBBB9FFF73CFE104B0022104C40F25D
:103B1800E735A3FB00130F492046E5609B0C2160A5
:103B28002261013BA2606360FFF7BAFF30B1012058
:103B380009B030BDFFF724FE4000E5E72046FFF757
:103B48005BFE09B030BD00BF0038024083DE1B4376
:103B5800F0B3012000100040FEF70ABA0148FFF751
:103B68005FBE00BFF0B30120704700BF704700BFC1
:103B78000B4B01E0013B10D00269002AFADA036915
:103B8800074A43F00103036101E0013A05D00369E4
:103B980013F00103F9D1184670470320704700BF9E
:103BA800400D030084B070B50A9E05AD0446012E91
:103BB80085E80E0018D0C36843F04003C360FFF7E0
:103BC800D7FF4FF48033A363089B012B07D1A36869
:103BD80043F00C03A360A36843F02003A360002014
:103BE800BDE8704004B07047826B0C4B22F4803201
:103BF800109982630129C26803EA0203C360C3689B
:103C080023F44013C36003D02046FFF7B1FFDBE77E
:103C1800C36843F48013C360F6E700BFBFFFBDFF6E
:103C280002460020936843F001039360704700BF89
:103C380002460020936823F001039360704700BF99
:103C480008B5C368012923F0C043C36009D019B976
:103C5800C36843F08043C3603220FEF797F9002021
:103C680008BDC36843F00053C3603220FEF78EF9E5
:103C7800002008BD84B02DE9F041866B07AF109C89
:103C880046F40016DDF828E0866387E80E005CB984
:103C9800836B23F400138363036843F040030360DA
:103CA800036843F08003036000220C9B00F5006664
:103CB800C0F8002E012BD0F80028C0F8002800F02A
:103CC8008380D0F8003843F00303C0F800384FF47D
:103CD8008462444B026101E0013B02D0026995060F
:103CE800FAD410223F4B026101E0013B02D0026985
:103CF800D206FAD400224FF0FF3332617261B36109
:103D0800F261A9B100F510634FF090484FF0FF0C35
:103D1800154607E01D6001321D61C3F808C0203355
:103D28008A422DD01F68002FF4DAC3F80080F2E72A
:103D38003369BEF1010F23F48073336137D0002259
:103D48006FF0804382614361BEF1000F03D1836944
:103D580043F0100383618169234B0D9A0B43836100
:103D68001AB1836943F008038361012C03D1826986
:103D78001E4B134383610020BDE8F04104B0704737
:103D8800002200F530634FF090484FF0FF0C1546C5
:103D980007E01D6001321D61C3F808C020338A4264
:103DA800C6D01F68002FF4DAC3F80080F2E7104D80
:103DB8000021104B6FF080423563356B2B43336322
:103DC800336B81614261C6E7099B23B9D0F800389B
:103DD800C0F800387BE7D0F8003843F00103C0F89A
:103DE800003874E7400D030000383C8004000040B0
:103DF80000018000030001008901074A41F0200109
:103E0800016101E0013A05D0036913F02003F9D1FB
:103E18001846704703207047400D0300D0F8083853
:103E280000F5006213F0060012D0936803F0060351
:103E3800022B0CD0936803F00603062B07D0936877
:103E480003F00603042B14BF002002207047032050
:103E5800704700BF70B44B78012B1ED00E784FF41A
:103E68008034D0F81C584FF43063B4402C43C0F869
:103E78001C480A7803EB42131A5812040AD41D5836
:103E88008C68164A2A43CD78C4F30A010A4342EAE9
:103E980085421A50002070BC70470D784FF41062AC
:103EA800AB40D0F81C589BB22B43C0F81C380D7897
:103EB80002EB45131A581404ECD41A588C68074EB0
:103EC8001643CA78C4F30A01314341EA824242EAFE
:103ED800855270BC1A500020704700BF0080001047
:103EE8004B78012B70B41DD00E780124D0F83C58C3
:103EF8004FF4306304FA06F625EA0645C0F83C5844
:103F08000E78D0F81C58B44025EA0444C0F81C4880
:103F18000A7803EB42131A5822F4004270BC1A5074
:103F2800002070470D784FF41062D0F83C6803FA0F
:103F380005F5ADB226EA0505C0F83C580E78D0F86C
:103F48001C58B3409BB225EA0303C0F81C380B7811
:103F580002EB43131A5822F4004270BC1A50002096
:103F6800704700BF2DE9F04F4B78012B7BD00D78BF
:103F780020234FF43066DFF880E24C6913FB0565B7
:103F88009C4F0544D5F810C00CEA0E0EC5F810E099
:103F98000D7813FB05650544D5F810E00EEA070710
:103FA8002F6194B38D68012A0F782C44DFF84CE216
:103FB80013FB076704F1FF340744B4FBF5F4A4B21C
:103FC800D7F810C04FEAC44805FB04F408EA0E0EFF
:103FD800C4F312044EEA0C053D610D7813FB05632A
:103FE80003441D6944EA05041C6123D0CB78012BE6
:103FF80029D00A784FF4306303EB4213C25842F0D9
:104008000442C2500020BDE8F08F0C78012A8D6868
:1040180013FB0464C5F312070444256945EA070540
:1040280025610C7813FB046303441C6944F40024E1
:104038001C61DBD10B78CA6800EB4313C3F8142B5F
:10404800CB78012BD5D1D0F808380A7813F4807FC3
:104058004FF4306303EB4213C25840F0A38042F0A0
:104068000052C250C5E74B69002B50D10D7820246F
:104078004FF41067DFF87CE15F4E14FB05750544CB
:10408800D5F810C00CEA0E0EC5F810E00D7814FB38
:1040980005750544D5F810E04EF4002EC5F810E07B
:1040A8000D7814FB0574044425692E402661012A05
:1040B80071D0CC78012C79D053B10F780125D0F884
:1040C8003468BD403543C0F83458CC78012C6DD0E5
:1040D8000D784FF4106404EB4514055945F0044578
:1040E8000551CC78012C8DD1CC680978002A89D16A
:1040F8009BB203339B1085D000EB013000F5805054
:10410800013254F8041B93420160F9D17AE791F81F
:1041180000E020254FF41066DFF8DCA0D1F8089005
:10412800C3F3120715FB0E6EDFF8C88003EB090412
:10413800DFF8C8C08644013CDEF810B00BEA0A0A72
:10414800CEF810A091F800E015FB0E6E8644DEF85C
:1041580010A00AEA0808B4FBF9F9CEF810804FEA73
:10416800C9490C7809EA0C0C15FB04640444D4F81A
:1041780010E04CEA0E0CC4F810C00C7815FB04646F
:104188000444D4F810E047EA0E072761CC78012CE4
:104198001FD0012A90D10C780D6900EB4414C4F8A3
:1041A800145992E742F08052C25022E7D0F80848EA
:1041B8000D7814F4807F4FF4106404EB451405590E
:1041C80003D145F00055055182E745F0805505516A
:1041D8007EE70C7815FB04640444276927F0C04780
:1041E80027610C7815FB046505442C6944F00054DC
:1041F8002C615CE7FFFF07E00000F8FF0000F81FF4
:104208004B78012B2DE9F0413FD00D7820244FF455
:1042180030635A4FD1F814E014FB0535584E054465
:10422800D5F810C00CEA07072F610D7814FB053389
:1042380003441C6926408C681E61BEF1000F22D120
:104248000B7820254FF43067C4F31204012A15FBBC
:10425800037303441E6946F400261E610B7815FBA0
:10426800037303441E6944EA06041C6158D00A78A3
:104278004FF4306303EB4213C25842F00442C25079
:104288000020BDE8F0814C61DAE74F69002F4ED07D
:104298000D7820244FF4106C384B8E6814FB05C53C
:1042A800DFF8DCE0B7420544D5F8108008EA0303DC
:1042B8002B610B7814FB03C303441C6904EA0E0E3C
:1042C800C3F810E058D83E460D7820244FF4106308
:1042D800C6F3120614FB053505442F6947F4002779
:1042E8002F610D7814FB053303441C6926431E61B6
:1042F800012A3AD04B693BB10D780122D0F83448F5
:10430800AA402243C0F834280A784FF4106303EB1C
:104318004213C25842F00442C2500020BDE8F08166
:104328000A78CB6815FB027505446B619FE70C782A
:1043380020234FF41066124F104D13FB04640444FD
:10434800D4F810E00EEA070727610C7813FB046421
:104358000444276947F4002727610C7813FB04639A
:1043680003441C6925401D61C2E70B780A6900EB0C
:104378004313C3F81429C7E74E61A5E70000F8FF07
:10438800FFFF07E030B49DF8084064B903339B1081
:1043980009D000F5805000EB0232013451F8045B7B
:1043A800A3421560F9D1002030BC70470332921047
:1043B8000FD0002370B400F580560C4601333568E1
:1043C8009A4244F8045BF9D101EB820170BC0846BB
:1043D80070470846704700BF4B782022012B0B78A6
:1043E80070B416D04FF4306512FB03531E581C18D6
:1043F800002E07DB1C5824F080441C500B7812FB5D
:10440800035214182368002043F40013236070BC7F
:1044180070474FF41065E7E74B78012B0B7830B401
:104428004FF0200415D04FF4306514FB03531A588D
:1044380022F400121A50CB78023B012B06D80B78D5
:1044480014FB0354235843F080532350002030BCFE
:1044580070474FF41065E8E710B4FF2200F51063C9
:1044680000F52E649A6003F5007120338A60A34238
:10447800F8D100214FF0FF331024C0F81838C0F8E5
:1044880010180D4BC0F81418C0F81C18046101E08E
:10449800013B02D00269D106FAD44FF48462064B7C
:1044A800026101E0013B02D002699206FAD40020C1
:1044B8005DF8044B704700BF400D03000346090137
:1044C8000020D3F8002801F4FE6122F4FE62C3F84C
:1044D8000028D3F800281143C3F80018704700BF1C
:1044E80000F50062032008B5536823F00203536007
:1044F800FDF74CFD002008BD00F50062032008B55B
:10450800536843F002035360FDF740FD002008BDE7
:104518004369806918407047D0F8183800F5006082
:10452800C0691840000C704700F50063D0F81808FF
:10453800DB69184080B2704700F5306300F5006011
:1045480003EB41118B6840691840704700F5006320
:1045580000EB411010B41C695B6BD0F80809CB4024
:10456800DB01DBB223435DF8044B1840704700BF02
:10457800406900F001007047D0F8001900F50063A9
:104588000A4A0A40C0F800299A6802F00602042A7A
:1045980005D1D0F8002942F00302C0F800295A6872
:1045A800002042F480725A60704700BF00F8FFFF95
:1045B80010B400240129C0F8104BD0F8104B44F473
:1045C8000024C0F8104BD0F8104B44F01804C0F881
:1045D800104BD0F8104B44F0C044C0F8104B05D134
:1045E8004FF08021C0F8142BC0F8001B00205DF8A4
:1045F800044B704708B5034688B1D0F8140210B1CF
:104608000020C3F8140209B1C3F8101201211A706E
:10461800184683F8FC11FCF799FF002008BD02201A
:1046280008BD00BF0122D0F81432017910B5044644
:1046380080F8FC215B6898472046FCF7C5FF2046B8
:10464800FCF7B2FF002010BD19B1C0F81412002009
:1046580070470220704700BF08B5FCF7ADFF002087
:1046680008BD00BF08B5D0F8143213B11B689847CD
:1046780008B1022008BD08BD08B5D0F814325B683F
:104688009847002008BD00BF38B500F502750446FC
:10469800284600F0E5FA94F808120120B4F80E2232
:1046A80001F01F03C4F8F4018342C4F8F82115D0BF
:1046B8000ED3022B06D0204601F08001FCF79EFFA6
:1046C800002038BD2046294600F060FA002038BD99
:1046D8002046294600F0E4F8002038BD2046294647
:1046E80000F036FA002038BD38B5044629B9D0F8AC
:1046F800F431032B0CD0002038BDD0F814329B695C
:10470800002BF8D090F8FC21032AF4D19847F2E75F
:10471800D0F80C11D0F8103199420CD8D0F81432D6
:104728001B691BB190F8FC21032A0FD0204600F02A
:1047380003FB002038BDCD1A1146AB42C0F80C511E
:1047480028BF2B469AB200F0EDFAD4E79847EDE778
:1047580070B5044649B9D0F8F431022B15D094F855
:104768000032012B0CD0002070BDD0F814325B69E8
:10477800002BF8D090F8FC21032AF4D19847F2E7EF
:104788000023002084F8003270BDC6690D46036A14
:104798009E4223D88669B6FBF3F203FB12628AB9FC
:1047A800B3420FD8D0F8F8319E420BD20A4600F037
:1047B8009FFAC4F8F851204629462A462B46FCF7AA
:1047C80051FFCCE7D4F81432DB681BB194F8FC2114
:1047D800032A0AD0204600F0BBFAC0E7F31A1146B4
:1047E800C3619AB200F084FAE5E720469847F1E7FA
:1047F80038B50021402504460A462B46FCF7ECFE56
:104808002B460022C4F8105120468021FCF7E4FE14
:104818000122D4F81832256284F8FC212BB1D4F88F
:104828001432204621795B689847002038BD00BFC4
:1048380001740020704700BF03460421002093F84C
:10484800FC2183F8FC1183F8FD2170470346002002
:1048580093F8FD2183F8FC21704700BF08B590F854
:10486800FC21032A01D0002008BDD0F81432DB69EE
:10487800002BF8D09847002008BD00BF00207047E3
:104888000020704700207047D0F81422012108B595
:1048980080F8FC11017953689847002008BD00BFD3
:1048A80030B54B7883B00D460446092B0BD8DFE8AA
:1048B80003F035480A580A05650A7B158B8813B931
:1048C800CB88002B7DD080212046FCF797FE204620
:1048D8000021FCF793FE002003B030BD89789B4D82
:1048E80001292970EFD890F8FC31022B00F087805D
:1048F800032BE8D1002900F01E814168012909D065
:10490800C9B2FFF7B9FE297820466160FFF7AAFE11
:104918000228D8D0204600F00FFADCE790F8FC31E6
:1049280001220321023B9342CDD8D0F80432C26061
:1049380003B1C160204604F10C01022200F0CAF95B
:10494800C9E790F8FC31023B012BBCD84B88012BFE
:10495800C1D10022D0F81432C4F804229B689847C9
:10496800D8E74B88012BB6D1D0F81422C0F804320E
:1049780093689847204600F0DFF9ACE74A88130AA5
:10498800013B062B9FD801A151F823F0794A000872
:104998009D4A00088B4A0008CF480008CF48000805
:1049A800614A0008214A0008CA88012A8BD190F878
:1049B800FC31022B1CD0032B85D1011D00F08AF994
:1049C80089E790F8FC318D78032B05F07F053FF4DB
:1049D8007AAF80F8FE512946FCF734FE204600F0F5
:1049E800ABF9002D00F09980022384F8FC3172E7BE
:1049F8000023014641F8083F00F06CF96BE70029F5
:104A080088D001210323616084F8FC31FFF72AFE76
:104A180002287FF47FAF56E7037C002B7FF453AF67
:104A2800D0F814320DF106001B6B98470723014696
:104A38004370BDF80630002B3FF44DAFEA88002ADA
:104A48003FF449AF9342204628BF13461A46ADF8B3
:104A5800063000F03FF93EE7037C002B7FF433AFCC
:104A6800D0F814320DF106005B6B98470146E0E779
:104A7800D0F810320DF10601007C1B6898470146FA
:104A8800D7E7D2B2052A3FF61EAFDFE802F02B22A5
:104A980019103D34037C002B43D1D0F814320DF1AA
:104AA80006009B6A9847022301464370C1E7D0F885
:104AB80010320DF10601007C1B6998470146B8E7E2
:104AC800D0F810320DF10601007CDB6898470146EA
:104AD800AFE7D0F810320DF10601007C9B689847CB
:104AE8000146A6E7D0F810320DF10601007C5B689C
:104AF800984701469DE7D0F810320DF10601007C79
:104B08009B699847014694E7D0F810320DF10601E9
:104B1800007C5B69984701468BE7012384F8FC31E8
:104B2800D9E6D0F814320DF10600DB6A9847022363
:104B3800014643707DE70223416084F8FC31FFF7AA
:104B48009BFD204600F0F8F8C5E600BFA024012030
:104B580038B590F8FC310446032B03D10B790D4688
:104B6800012B08D98021FCF749FD20460021FCF7DC
:104B780045FD002038BDD0F814329B689847EB8873
:104B8800002BF6D1204600F0D7F8F2E770B50B7885
:104B98000C468A88054603F06003D6B2202B55D010
:104BA8004B78012B34D019D3032B15D190F8FC3155
:104BB800022B31D0032B40D14B8823B9730602D086
:104BC8003146FCF71BFDD5F81432214628469B6870
:104BD8009847284600F0B0F8002070BD90F8FC31E6
:104BE800022B19D0032B28D106F07F04130600EB03
:104BF800041433D404F5827431462846FCF70EFDBC
:104C080048BB206028462146022200F063F8E3E70B
:104C180090F8FC31022B05D17206DDD03146FCF745
:104C2800EDFCD9E7032B08D14B88002BD4D17106B2
:104C3800CFD03146FCF7EAFCC5E78021FCF7DEFC63
:104C480028460021FCF7DAFC002070BDD0F81432A9
:104C58009B689847C0E701232360D3E71434CBE768
:104C68000B7803704B784370CA788B7803EB022378
:104C780043804A790B7903EB02238380CA798B79C5
:104C880003EB0223C380704700B3037830B4F3B159
:104C980004460023013314F8015FDBB2002DF9D17B
:104CA8005B000233DCB2032513800C704D7004786E
:104CB8005CB1022300255A1CCC540233D2B2DBB2B9
:104CC8008D5410F8014F002CF5D130BC70470224E8
:104CD8002346E8E770B5154602260A4600212B460A
:104CE8008561C561C0F8F461FCF7B4FC002070BDB3
:104CF80010B50C46134600212246FCF7ABFC0020F9
:104D080010BD00BF70B5154603260A4600212B4684
:104D1800C0F80851C0F80C51C0F8F461FCF7A2FCC7
:104D2800002070BD10B50C46134600212246FCF742
:104D380099FC002010BD00BF08B5002104230A46D5
:104D4800C0F8F4310B46FCF785FC002008BD00BF15
:104D580008B5002105230A46C0F8F4310B46FCF7D4
:104D680081FC002008BD00BFDFF834D0002103E03B
:104D78000C4B5B58435004310B480C4B42189A4279
:104D8800F6D30B4A02E0002342F8043B094B9A424F
:104D9800F9D3FCF775FD00F011F8FBF73BFB704702
:104DA800FFFF0420B0590008F0140120BC1E0120A8
:104DB800BC1E012030B40120FEE7000070B50F4E84
:104DC8000F4D761BB61018BF002405D0013455F8D6
:104DD800043B9847A642F9D10A4E00F007FD0A4D58
:104DE800761BB61018BF002406D0013455F8043BD2
:104DF8009847A642F9D170BD70BD00BFA4590008FC
:104E0800A4590008AC590008A4590008024B0146EF
:104E1800186800F00BB800BFA81A0120024B014621
:104E2800186800F0B7BB00BFA81A01202DE9F04FA1
:104E380001F10B0483B00546162C27D934F007047A
:104E48002AD4A14228D800F0EDFAB4F5FC7F2BD281
:104E58004FEAD40CC04E06EBCC02D368934200F064
:104E680071815A6803F10808D968284622F00302BC
:104E78009C681344E1608C605A6842F001025A60F1
:104E880000F0D2FA404603B0BDE8F08F102903D8ED
:104E980000F0C8FA1024DBE74FF000080C23404666
:104EA8002B6003B0BDE8F08F5FEA542C00F08980D6
:104EB800BCF1040F00F2C4804FEA941C0CF1380CCA
:104EC8004FEA4C00A44E06EB8000C368984205D117
:104ED8000CE0002979DADB68984207D05A6822F09A
:104EE8000302111B0F29F4DD0CF1FF3C0CF1010C3E
:104EF800994F336907F1080E734500F019815A6814
:104F080022F00302111B0F2900F3CA800029C7F8F9
:104F180014E0C7F810E06ADAB2F5007F80F09F80ED
:104F2800D208012079684FEAA20807EBC20200FA0A
:104F380008F0D2F808800843DA60C3F8088078607F
:104F48009360C8F80C304FEAAC03012199408142C4
:104F58005BD8084206D12CF0030C49000CF1040C74
:104F68000842FAD006EBCC08E1464046C768B8428A
:104F780007D1DFE0002A80F2F780FF68B84200F02E
:104F8800D9807B6823F003031A1B0F2AF2DDB84689
:104F9800FB6844F0010942F0010C58F8081F3C4432
:104FA800C7F804902846CB60996074613461C4F8EE
:104FB8000CE0C4F808E0C4F804C0A25000F034FAC9
:104FC80060E77E204FF03F0C7CE71A44DC689E685F
:104FD80003F1080851682846F46041F00103A6600F
:104FE800536000F021FA404603B0BDE8F08F1A4440
:104FF80003F108082846536843F00103536000F0A2
:1050080013FA404603B0BDE8F08FB7687A6822F01B
:105018000308C4EB08020F2A56DDA04554D344F018
:10502800010342F001023C4407F108087B6028466E
:10503800B460626000F0F8F9404603B0BDE8F08F54
:10504800BCF1140F40F29F80BCF1540F00F227818D
:105058004FEA143C0CF16E0C4FEA4C0032E7510A4F
:10506800042940F29580142900F2428101F15B077E
:10507800780006EB8000DFF8E0908168814200F05C
:105088001B814F6827F00307BA4202D28968884219
:10509800F7D1CA687068DA6099609360CB6052E7AC
:1050A80044F0010641F001021C4428465E6003F109
:1050B80008087C613C61C4F80CE0C4F808E0626050
:1050C800615000F0B1F9DDE6244A254B11681B68F0
:1050D8000131234400F0098141F20F01DFF8849087
:1050E800194401EA090928464946019200F09EF947
:1050F800B0F1FF3F8246019A00F00181BB1B07EB2C
:105108000801154818BF0123514567D9002B65D000
:1051180087687B6823F003031A1B0F2A02DD9C4271
:105128007FF67DAF28464FF0000800F07DF9A9E62C
:10513800786808E709F10109083019F0030F7FF4CE
:1051480015AF2FE003F108025B699A4208BF0CF122
:10515800020C3FF4CDAE84E6AC1A0120B81E012043
:10516800AC24012000F0FFFFFA18B846F968284679
:10517800536858F8084F43F001035360E1608C60AE
:1051880000F052F97EE60CF15B0C4FEA4C0099E610
:10519800910901F1380778006BE7D8F80080984545
:1051A80040F0E6801CF0030FA8F108030CF1FF3C67
:1051B800F3D1736823EA01037360490099423FF60B
:1051C80024AF00293FF421AF0B42CC467FF4CAAE8E
:1051D80049000CF1040C0B42FAD0C3E6DFF89CB18D
:1051E8005145DBF800004844CBF8000000F08C8003
:1051F8001268DFF88CE1013200F0A380C1EB0A01EC
:105208000844CBF800001AF0070152D0C1F1080099
:1052180041F208028244521A0AEB09012846019316
:10522800C1F30B01C1EB0209494600F0FFF8431C2A
:10523800019B7AD0CAEB00024A4442F00102DBF833
:105248000000C6F808A04844CAF80420DFF82C91EA
:10525800CBF80000A3B1B8F10F0F37D97B68A8F1DC
:105268000C024FF0050E22F0070203F00103B918F3
:1052780013430F2A7B60C1F804E0C1F808E058D84E
:105288003C4B1A68904200D918603B4BB7681A68C3
:10529800904200D918607B6823F003033CE7BCF513
:1052A800AA7F17D84FEAD43C0CF1770C4FEA4C0090
:1052B80008E64FF48052AFE7BF1001200A46B84015
:1052C800D9F804703843C9F80400E4E60123CAF8A1
:1052D800043027E740F254539C4522D84FEA944CB7
:1052E8000CF17C0C4FEA4C00ECE503F11009FAE6EE
:1052F800542929D8110B01F16E077800B9E6B7686F
:105308007B6823F0030307E7C1F30B0EBEF1000F20
:105318007FF46EAF09EB0803B26843F001035360F2
:10532800AEE7FC204FF07E0CCCE501224FF00009DF
:1053380085E7284607F1080100F02CF9D9F80000A4
:105348009EE7CEF800A05EE7B1F5AA7F04D8D10B9E
:1053580001F1770778008CE640F25450814204D876
:10536800910C01F17C07780083E6FC207E2780E61B
:10537800736822E7A8240120A4240120B024012076
:10538800B81E0120830770B449D0541E002A44D0A7
:10539800CDB2034602E0002C3FD0144603F8015B6F
:1053A80013F0030F04F1FF32F5D1032C2ED9CDB23F
:1053B8000F2C45EA052545EA054519D903F11002E0
:1053C8002646103E42F8105C42F80C5C10320F2E54
:1053D80042F8185C42F8145CF3D8A4F1100204F007
:1053E8000F0422F00F02032C02F1100213440DD90E
:1053F8001E462246043A46F8045B032AFAD8221FBE
:1054080004F0030422F00302043213442CB1C9B29D
:105418001C4403F8011BA342FBD170BC704714461F
:105428000346C2E7704700BF704700BF38B5002386
:10543800064C054608462360FCF7D2F9431C00D009
:1054480038BD2368002BFBD02B6038BD2CB401205D
:1054580020F0030110F00300C0F1000051F8043BF4
:1054680000F1040C4FEACC0C6FF000021CBF22FACA
:105478000CF213434FF0010C4CEA0C2C4CEA0C4C88
:10548800A3EB0C0222EA030212EACC1204BF51F881
:10549800043B0430F4D0C2F1000102EA0102B2FA7E
:1054A80082F2C2F11F0200EBD2007047024B13B127
:1054B800024800F005B8704700000000D554000805
:1054C800014600200246034600F03CB938B5084BB7
:1054D800084DED1AAC1018BFED1805D0013C55F871
:1054E800043D9847002CF9D1BDE8384000F084B954
:1054F800AC590008B0590008F8B5224F0C460646CA
:10550800FFF790FFBA68204B556825F003052C1B60
:1055180004F6EF742340A3F58054B4F5805F07DBED
:1055280030460021FFF782FFBB682B44984204D025
:105538003046FFF779FF0020F8BD30466142FFF79B
:1055480075FF01300DD0114A2D1BB968304613681C
:1055580045F001051B1B4D601360FFF765FF012037
:10556800F8BD30460021FFF761FFBA68831A0F2B98
:10557800DEDD074C43F00103044924685360001B37
:105588000860D5E7AC1A012000F0FFFFB024012025
:10559800B81E012000294DD02DE9F0410C46804667
:1055A800FFF740FF634954F8047CA4F108058E68AE
:1055B80027F00103EA185068964220F0030059D0FA
:1055C800FE0750600BD454F8084C01F108072D1B56
:1055D8002344AC68BC4266D0EF68E760BC6014182E
:1055E8006468E4070CD4544C03449068A0427CD00F
:1055F800D46843F00102C460A0606A60EB5003E025
:1056080043F001026A60EB50B3F5007F13D2DB0868
:1056180001204A689C1001EBC303A0409C68024328
:10562800EB60AC604A609D60E5604046BDE8F041D3
:10563800FFF7FABE70475A0A042A47D89A0902F1B6
:105648003804600001EB80003A498268824243D006
:10565800516821F00301994202D992689042F7D12A
:10566800D368EB604046AA609D60D560BDE8F04114
:10567800FFF7DABEFF07034407D454F8082CAD1A25
:105688001344A868EA68C26090602C4A43F001009D
:105698001268686093428D60C7D3294B40461968E9
:1056A800FFF72AFFC1E711184968C90709D403445D
:1056B800D168926843F00100D1608A606860EB505D
:1056C800B3E743F001026A60EB50AEE7142A15D83D
:1056D80002F15B046000B5E7A4100127486813468F
:1056E80007FA04F420434860BBE743F001024D6128
:1056F8000D61E860A8606A60EB5096E7542A04D808
:105708001A0B02F16E0460009CE7B2F5AA7F04D878
:10571800DA0B02F17704600094E740F254508242B9
:1057280004D89A0C02F17C0460008BE7FC207E24EC
:1057380088E700BFAC1A0120B41A0120B41E01206A
:10574800AC2401202DE9F047264C064688469146B0
:1057580025689A46D5F84841002C3AD060681F2839
:1057680019DC411C86B104EB80050122022EC5F824
:10577800889002FA00F2D4F8883143EA0203C4F8A8
:105788008831C5F808A11ED0831C6160002044F848
:105798002380BDE8F087144B03B34FF4C870FFF7BC
:1057A80035FB0446D0B1D5F8483100270121036004
:1057B80038466760C5F84841C4F88871C4F88C71E8
:1057C800002EE1D0CFE7D4F88C311A43C4F88C21ED
:1057D800DAE705F5A674C5F84841BFE74FF0FF3092
:1057E800BDE8F087A0590008154E0008F8B500BFBD
:1057F800F8BC08BC9E467047F8B500BFF8BC08BCAA
:045808009E46704701
:10580C004F70656E43522052312E3000524F424F32
:10581C00544953004F70656E43522056697274752B
:10582C00616C20436F6D506F727420696E20485309
:10583C00204D6F64650000004F70656E435220561A
:10584C0069727475616C20436F6D506F727420694E
:10585C006E204653204D6F64650000005643502067
:10586C00436F6E666967000056435020496E74653D
:10587C00726661636500000000000000000000001B
:10588C0001020304060708090000000001020304DA
:10589C0000000000000000000000000000000000FC
:1058AC0000000000000000000000000000000000EC
:1058BC0000000000000000000000000000000000DC
:1058CC0000000000000000000000000000000000CC
:1058DC0000000000000000000000000000000000BC
:1058EC0000000000000000000000000000000000AC
:1058FC00000000000000000000000000000000009C
:10590C00000000000000000000000000000000008B
:10591C00000000000000000000000000000000007B
:10592C00000000000000C0A68C7E0830E9E20D1FCC
:10593C0009832500000000000000000000000000AA
:10594C00000000000000000000000000000000004B
:10595C00000000000000000000000000000000003B
:10596C00000000000000000000000000000000002B
:10597C00000000000000000000000000000000001B
:10598C00000000000000000000000000000000000B
:08599C00430000008016012009
:0859A400B5540008ED010008F4
:0459AC00C901000825
:1059B0000C580008000802170018024000020000FE
:1059C00009024300020100C0320904000001020282
:1059D0000100052400100105240100010424020235
:1059E00005240600010705820308001009040100D0
:1059F000020A0000000705010240000007058102BD
:105A000040000000690F00082D0F0008BD0E0008BF
:105A100000000000350E0008210E00088D0E000861
:105A2000000000000000000000000000690E0008F7
:105A30005D0E0008750E0008810E00080A060002BF
:105A4000000000400100000009074300020104C0FB
:105A500032090400000102020100052400100105C2
:105A60002401000104240202052406000107058226
:105A7000030800FF09040100020A000000070501F5
:105A800002400000070581024000000009024300B7
:105A9000020100C0320904000001020201000524D5
:105AA000001001052401000104240202052406005F
:105AB000010705820308001009040100020A000022
:105AC0000007050102000200070581020002000034
